:060000000A128A1100291A
:10000800F000030EF1000B196E220B180D21710E72
:080018008300F00E700E0900D8
:10020000282156215D214D211F210313831205084A
:10021000A000142236223D22072903138312061F51
:100220001521861F1A210B100800850A0508A70052
:100230001C22080085030508A7001C2208000313E0
:100240008316161796170313831206080B1008005F
:10025000031783168801890103138316850187011B
:1002600088010610861006118611061206178617D9
:1002700081131517951703138312850187018801D0
:100280008601A001A201A301BF30A500A600A7001E
:10029000A901AA01AB01A7010800031383128B1760
:1002A0008B160B118B150B10860808000313831691
:1002B0000F140F128F160F170800031383168111E6
:1002C0000110811401158112B230031383128100D1
:1002D0000B11080003138312B23081000B110800C8
:100400008A018A140F398207BF348634DB34CF3433
:10041000E634ED34FD348734FF34EF34F734FC3404
:10042000B934DE34F934F1340F302005A300F03054
:100430002005A400A40E0800A901AA01AB016430A4
:10044000A702A90A03181F2AA9036430A7070A30C4
:10045000A702AA0A0318272AAA030A30A70701300D
:10046000A702AB0A03182F2AAB03080023080022B7
:10047000A50024080022A600080029080022AD00DB
:100480002A080022AE002B080022AF000800061048
:1004900086102218502A2508870086142214080086
:1004A000260887000614221008000611861106127D
:1004B0002C18622AAC18682A2D08880006152C14FE
:1004C000AC1008002E08880086152C10AC1408000B
:1004D0002F08880006162C10AC1008006A2147224D
:0404E0005522080099
:04400E00C430FF3F7C
:00000001FF
